{
  "contractName": "FaucetContract",
  "abi": [
    {
      "inputs": [],
      "stateMutability": "nonpayable",
      "type": "constructor"
    },
    {
      "inputs": [],
      "name": "getNumOfLogs",
      "outputs": [
        {
          "internalType": "uint256",
          "name": "",
          "type": "uint256"
        }
      ],
      "stateMutability": "view",
      "type": "function",
      "constant": true
    },
    {
      "inputs": [],
      "name": "numOfFunders",
      "outputs": [
        {
          "internalType": "uint256",
          "name": "",
          "type": "uint256"
        }
      ],
      "stateMutability": "view",
      "type": "function",
      "constant": true
    },
    {
      "inputs": [],
      "name": "numOfLogs",
      "outputs": [
        {
          "internalType": "uint256",
          "name": "",
          "type": "uint256"
        }
      ],
      "stateMutability": "view",
      "type": "function",
      "constant": true
    },
    {
      "inputs": [],
      "name": "owner",
      "outputs": [
        {
          "internalType": "address",
          "name": "",
          "type": "address"
        }
      ],
      "stateMutability": "view",
      "type": "function",
      "constant": true
    },
    {
      "inputs": [
        {
          "internalType": "address",
          "name": "newOwner",
          "type": "address"
        }
      ],
      "name": "transferOwnership",
      "outputs": [],
      "stateMutability": "nonpayable",
      "type": "function"
    },
    {
      "inputs": [],
      "name": "emitLog",
      "outputs": [
        {
          "internalType": "bytes32",
          "name": "",
          "type": "bytes32"
        }
      ],
      "stateMutability": "pure",
      "type": "function",
      "constant": true
    },
    {
      "inputs": [],
      "name": "receiveFunds",
      "outputs": [],
      "stateMutability": "payable",
      "type": "function",
      "payable": true
    },
    {
      "inputs": [],
      "name": "addFunds",
      "outputs": [],
      "stateMutability": "payable",
      "type": "function",
      "payable": true
    },
    {
      "inputs": [
        {
          "internalType": "uint256",
          "name": "amount",
          "type": "uint256"
        }
      ],
      "name": "withdrawFunds",
      "outputs": [],
      "stateMutability": "nonpayable",
      "type": "function"
    }
  ],
  "bytecode": "0x608060405234801561001057600080fd5b50336000806101000a81548173ffffffffffffffffffffffffffffffffffffffff021916908373ffffffffffffffffffffffffffffffffffffffff160217905550600060018190555061086a806100686000396000f3fe6080604052600436106100855760003560e01c8063a26759cb11610059578063a26759cb14610113578063af7f2c9b1461011d578063c887e46b14610148578063f2fde38b14610173578063f42c13bf1461019c57610085565b80625c33e11461008a578063155dd5ee1461009457806383e6fa75146100bd5780638da5cb5b146100e8575b600080fd5b6100926101c7565b005b3480156100a057600080fd5b506100bb60048036038101906100b6919061056e565b6101c9565b005b3480156100c957600080fd5b506100d26102e6565b6040516100df91906105aa565b60405180910390f35b3480156100f457600080fd5b506100fd6102f0565b60405161010a9190610606565b60405180910390f35b61011b610314565b005b34801561012957600080fd5b5061013261042e565b60405161013f91906105aa565b60405180910390f35b34801561015457600080fd5b5061015d610434565b60405161016a91906105aa565b60405180910390f35b34801561017f57600080fd5b5061019a6004803603810190610195919061064d565b61043a565b005b3480156101a857600080fd5b506101b161050b565b6040516101be9190610693565b60405180910390f35b565b804781111561020d576040517f08c379a00000000000000000000000000000000000000000000000000000000081526004016102049061070b565b60405180910390fd5b60008054906101000a900473ffffffffffffffffffffffffffffffffffffffff1673ffffffffffffffffffffffffffffffffffffffff163373ffffffffffffffffffffffffffffffffffffffff161461029b576040517f08c379a00000000000000000000000000000000000000000000000000000000081526004016102929061079d565b60405180910390fd5b3373ffffffffffffffffffffffffffffffffffffffff166108fc839081150290604051600060405180830381858888f193505050501580156102e1573d6000803e3d6000fd5b505050565b6000600154905090565b60008054906101000a900473ffffffffffffffffffffffffffffffffffffffff1681565b6000339050600360008273ffffffffffffffffffffffffffffffffffffffff1673ffffffffffffffffffffffffffffffffffffffff16815260200190815260200160002060009054906101000a900460ff1661042b576001600360008373ffffffffffffffffffffffffffffffffffffffff1673ffffffffffffffffffffffffffffffffffffffff16815260200190815260200160002060006101000a81548160ff0219169083151502179055503360046000600260008154809291906103da906107ec565b91905055815260200190815260200160002060006101000a81548173ffffffffffffffffffffffffffffffffffffffff021916908373ffffffffffffffffffffffffffffffffffffffff1602179055505b50565b60025481565b60015481565b60008054906101000a900473ffffffffffffffffffffffffffffffffffffffff1673ffffffffffffffffffffffffffffffffffffffff163373ffffffffffffffffffffffffffffffffffffffff16146104c8576040517f08c379a00000000000000000000000000000000000000000000000000000000081526004016104bf9061079d565b60405180910390fd5b806000806101000a81548173ffffffffffffffffffffffffffffffffffffffff021916908373ffffffffffffffffffffffffffffffffffffffff16021790555050565b60007f466175636574436f6e74726163743a204c6f6720656d69747465642e00000000905090565b600080fd5b6000819050919050565b61054b81610538565b811461055657600080fd5b50565b60008135905061056881610542565b92915050565b60006020828403121561058457610583610533565b5b600061059284828501610559565b91505092915050565b6105a481610538565b82525050565b60006020820190506105bf600083018461059b565b92915050565b600073ffffffffffffffffffffffffffffffffffffffff82169050919050565b60006105f0826105c5565b9050919050565b610600816105e5565b82525050565b600060208201905061061b60008301846105f7565b92915050565b61062a816105e5565b811461063557600080fd5b50565b60008135905061064781610621565b92915050565b60006020828403121561066357610662610533565b5b600061067184828501610638565b91505092915050565b6000819050919050565b61068d8161067a565b82525050565b60006020820190506106a86000830184610684565b92915050565b600082825260208201905092915050565b7f496e73756666696369656e742066756e64730000000000000000000000000000600082015250565b60006106f56012836106ae565b9150610700826106bf565b602082019050919050565b60006020820190508181036000830152610724816106e8565b9050919050565b7f4f6e6c79206f776e65722063616e2063616c6c20746869732066756e6374696f60008201527f6e2e000000000000000000000000000000000000000000000000000000000000602082015250565b60006107876022836106ae565b91506107928261072b565b604082019050919050565b600060208201905081810360008301526107b68161077a565b9050919050565b7f4e487b7100000000000000000000000000000000000000000000000000000000600052601160045260246000fd5b60006107f782610538565b91507fffffffffffffffffffffffffffffffffffffffffffffffffffffffffffffffff8203610829576108286107bd565b5b60018201905091905056fea264697066735822122010fc42831c7ba0306daa90070d9d15f0a869faab0abdc197e4a48b32007ec69d64736f6c63430008110033",
  "immutableReferences": {},
  "source": "// SPDX-License-Identifier: MIT\npragma solidity >=0.4.22 <0.9.0;\n\nimport \"./Owned.sol\";\nimport \"./Logger.sol\";\nimport \"./IFaucet.sol\";\n\ncontract FaucetContract is IFaucet, Owned, Logger {\n    // Storage variables\n    uint public numOfFunders;\n    mapping(address => bool) private funders;\n    mapping(uint => address) private lutFunders;\n\n    // Constructor\n    constructor() {}\n\n    // Abstract function implementation\n    function emitLog() public override pure returns (bytes32) {\n        return \"FaucetContract: Log emitted.\";\n    }\n\n    // Modifiers\n    modifier onlyFunders() {\n        require(funders[msg.sender], \"You are not a funder\");\n        _;\n    }\n\n    modifier limitWithdrawal(uint amount) {\n        require(amount <= address(this).balance, \"Insufficient funds\");\n        _;\n    }\n\n    // Events\n\n    // Functions\n    function receiveFunds() public payable {}\n\n    function addFunds() override external payable {\n        address funder = msg.sender;\n        if (!funders[funder]) {\n            funders[funder] = true;\n            lutFunders[numOfFunders++] = msg.sender;\n        }\n    }\n\n    function withdrawFunds(uint amount) override external limitWithdrawal(amount) onlyOwner {\n        payable(msg.sender).transfer(amount);\n    }\n\n    // Fallback function\n}\n",
  "sourcePath": "/Users/rlarin/Work/Personal/SolidityEthereumCourse/faucet/contracts/FaucetContract.sol",
  "compiler": {
    "name": "solc",
    "version": "0.8.17+commit.8df45f5f.Emscripten.clang"
  },
  "schemaVersion": "3.4.11",
  "updatedAt": "2022-12-30T09:39:51.917Z",
  "networkType": "ethereum",
  "devdoc": {
    "kind": "dev",
    "methods": {},
    "version": 1
  },
  "userdoc": {
    "kind": "user",
    "methods": {},
    "version": 1
  }
}